{
  "contractName": "GenericBet",
  "abi": [
    {
      "constant": true,
      "inputs": [],
      "name": "ended",
      "outputs": [
        {
          "name": "",
          "type": "bool"
        }
      ],
      "payable": false,
      "stateMutability": "view",
      "type": "function"
    },
    {
      "constant": true,
      "inputs": [],
      "name": "prizeNumberHigh",
      "outputs": [
        {
          "name": "",
          "type": "uint256"
        }
      ],
      "payable": false,
      "stateMutability": "view",
      "type": "function"
    },
    {
      "constant": true,
      "inputs": [
        {
          "name": "",
          "type": "uint256"
        }
      ],
      "name": "freeNumbers",
      "outputs": [
        {
          "name": "",
          "type": "uint256"
        }
      ],
      "payable": false,
      "stateMutability": "view",
      "type": "function"
    },
    {
      "constant": true,
      "inputs": [],
      "name": "sumNumbers",
      "outputs": [
        {
          "name": "",
          "type": "uint256"
        }
      ],
      "payable": false,
      "stateMutability": "view",
      "type": "function"
    },
    {
      "constant": true,
      "inputs": [],
      "name": "winnerNumber",
      "outputs": [
        {
          "name": "",
          "type": "uint256"
        }
      ],
      "payable": false,
      "stateMutability": "view",
      "type": "function"
    },
    {
      "constant": true,
      "inputs": [],
      "name": "newNumberPrice",
      "outputs": [
        {
          "name": "",
          "type": "uint256"
        }
      ],
      "payable": false,
      "stateMutability": "view",
      "type": "function"
    },
    {
      "constant": true,
      "inputs": [],
      "name": "paused",
      "outputs": [
        {
          "name": "",
          "type": "bool"
        }
      ],
      "payable": false,
      "stateMutability": "view",
      "type": "function"
    },
    {
      "constant": true,
      "inputs": [],
      "name": "feeAccount",
      "outputs": [
        {
          "name": "",
          "type": "address"
        }
      ],
      "payable": false,
      "stateMutability": "view",
      "type": "function"
    },
    {
      "constant": true,
      "inputs": [],
      "name": "prizeNumberLow",
      "outputs": [
        {
          "name": "",
          "type": "uint256"
        }
      ],
      "payable": false,
      "stateMutability": "view",
      "type": "function"
    },
    {
      "constant": true,
      "inputs": [],
      "name": "boughtNumber",
      "outputs": [
        {
          "name": "",
          "type": "uint256"
        }
      ],
      "payable": false,
      "stateMutability": "view",
      "type": "function"
    },
    {
      "constant": true,
      "inputs": [],
      "name": "resultNumber",
      "outputs": [
        {
          "name": "",
          "type": "uint256"
        }
      ],
      "payable": false,
      "stateMutability": "view",
      "type": "function"
    },
    {
      "constant": true,
      "inputs": [],
      "name": "freeNumbersLength",
      "outputs": [
        {
          "name": "",
          "type": "uint256"
        }
      ],
      "payable": false,
      "stateMutability": "view",
      "type": "function"
    },
    {
      "constant": true,
      "inputs": [],
      "name": "numberOfPossibleWinners",
      "outputs": [
        {
          "name": "",
          "type": "uint256"
        }
      ],
      "payable": false,
      "stateMutability": "view",
      "type": "function"
    },
    {
      "constant": true,
      "inputs": [],
      "name": "prizeNumbers",
      "outputs": [
        {
          "name": "",
          "type": "uint256"
        }
      ],
      "payable": false,
      "stateMutability": "view",
      "type": "function"
    },
    {
      "constant": true,
      "inputs": [
        {
          "name": "",
          "type": "uint256"
        }
      ],
      "name": "betNumbers",
      "outputs": [
        {
          "name": "betNumberOwner",
          "type": "address"
        },
        {
          "name": "betNumberIndexFreeNumbers",
          "type": "uint256"
        }
      ],
      "payable": false,
      "stateMutability": "view",
      "type": "function"
    },
    {
      "constant": true,
      "inputs": [],
      "name": "owner",
      "outputs": [
        {
          "name": "",
          "type": "address"
        }
      ],
      "payable": false,
      "stateMutability": "view",
      "type": "function"
    },
    {
      "constant": true,
      "inputs": [],
      "name": "feePercentage",
      "outputs": [
        {
          "name": "",
          "type": "uint256"
        }
      ],
      "payable": false,
      "stateMutability": "view",
      "type": "function"
    },
    {
      "constant": true,
      "inputs": [],
      "name": "betPrize",
      "outputs": [
        {
          "name": "",
          "type": "uint256"
        }
      ],
      "payable": false,
      "stateMutability": "view",
      "type": "function"
    },
    {
      "constant": true,
      "inputs": [],
      "name": "thisAddress",
      "outputs": [
        {
          "name": "",
          "type": "address"
        }
      ],
      "payable": false,
      "stateMutability": "view",
      "type": "function"
    },
    {
      "constant": true,
      "inputs": [],
      "name": "numberOfNumbers",
      "outputs": [
        {
          "name": "",
          "type": "uint256"
        }
      ],
      "payable": false,
      "stateMutability": "view",
      "type": "function"
    },
    {
      "constant": true,
      "inputs": [],
      "name": "numbersSum",
      "outputs": [
        {
          "name": "",
          "type": "uint256"
        }
      ],
      "payable": false,
      "stateMutability": "view",
      "type": "function"
    },
    {
      "constant": true,
      "inputs": [],
      "name": "prize",
      "outputs": [
        {
          "name": "",
          "type": "uint256"
        }
      ],
      "payable": false,
      "stateMutability": "view",
      "type": "function"
    },
    {
      "constant": true,
      "inputs": [],
      "name": "indexBoughtNumber",
      "outputs": [
        {
          "name": "",
          "type": "uint256"
        }
      ],
      "payable": false,
      "stateMutability": "view",
      "type": "function"
    },
    {
      "inputs": [
        {
          "name": "_feeAccount",
          "type": "address"
        },
        {
          "name": "_feePercentage",
          "type": "uint256"
        },
        {
          "name": "_newNumberPrice",
          "type": "uint256"
        },
        {
          "name": "_numberOfNumbers",
          "type": "uint256"
        },
        {
          "name": "_numberOfPossibleWinners",
          "type": "uint256"
        },
        {
          "name": "_sumNumbers",
          "type": "uint256"
        },
        {
          "name": "_owner",
          "type": "address"
        }
      ],
      "payable": false,
      "stateMutability": "nonpayable",
      "type": "constructor"
    },
    {
      "payable": true,
      "stateMutability": "payable",
      "type": "fallback"
    },
    {
      "anonymous": false,
      "inputs": [
        {
          "indexed": false,
          "name": "",
          "type": "uint256"
        },
        {
          "indexed": false,
          "name": "",
          "type": "address"
        }
      ],
      "name": "numberIsBought",
      "type": "event"
    },
    {
      "anonymous": false,
      "inputs": [
        {
          "indexed": false,
          "name": "",
          "type": "uint256"
        },
        {
          "indexed": false,
          "name": "",
          "type": "address"
        }
      ],
      "name": "numberIsCombined",
      "type": "event"
    },
    {
      "anonymous": false,
      "inputs": [
        {
          "indexed": false,
          "name": "",
          "type": "uint256"
        },
        {
          "indexed": false,
          "name": "",
          "type": "address"
        }
      ],
      "name": "numberIsNotCombined",
      "type": "event"
    },
    {
      "anonymous": false,
      "inputs": [
        {
          "indexed": false,
          "name": "",
          "type": "uint256"
        },
        {
          "indexed": false,
          "name": "",
          "type": "address"
        },
        {
          "indexed": false,
          "name": "",
          "type": "address"
        },
        {
          "indexed": false,
          "name": "",
          "type": "uint256"
        }
      ],
      "name": "betIsFinished",
      "type": "event"
    },
    {
      "anonymous": false,
      "inputs": [
        {
          "indexed": false,
          "name": "",
          "type": "address"
        }
      ],
      "name": "pausedSet",
      "type": "event"
    },
    {
      "anonymous": false,
      "inputs": [
        {
          "indexed": false,
          "name": "",
          "type": "address"
        }
      ],
      "name": "restarted",
      "type": "event"
    },
    {
      "constant": false,
      "inputs": [],
      "name": "buyNumber",
      "outputs": [
        {
          "name": "",
          "type": "uint256"
        }
      ],
      "payable": true,
      "stateMutability": "payable",
      "type": "function"
    },
    {
      "constant": false,
      "inputs": [
        {
          "name": "number1",
          "type": "uint256"
        },
        {
          "name": "number2",
          "type": "uint256"
        }
      ],
      "name": "combineNumbers",
      "outputs": [
        {
          "name": "newNumber",
          "type": "uint256"
        }
      ],
      "payable": false,
      "stateMutability": "nonpayable",
      "type": "function"
    },
    {
      "constant": false,
      "inputs": [],
      "name": "pauseOn",
      "outputs": [],
      "payable": false,
      "stateMutability": "nonpayable",
      "type": "function"
    },
    {
      "constant": false,
      "inputs": [],
      "name": "pauseOff",
      "outputs": [],
      "payable": false,
      "stateMutability": "nonpayable",
      "type": "function"
    }
  ],
  "bytecode": "0x60806040523480156200001157600080fd5b5060405160e08062001c9b83398101806040528101908080519060200190929190805190602001909291908051906020019092919080519060200190929190805190602001909291908051906020019092919080519060200190929190505050600081600560006101000a81548173ffffffffffffffffffffffffffffffffffffffff021916908373ffffffffffffffffffffffffffffffffffffffff16021790555087600c60006101000a81548173ffffffffffffffffffffffffffffffffffffffff021916908373ffffffffffffffffffffffffffffffffffffffff16021790555086600e8190555085600d81905550846001819055508360028190555082600381905550600354600981905550620001423060025460015403620002ee640100000000026401000000009004565b600a8190555060016200016e600a54600254620003c7640100000000026200185f176401000000009004565b03600b8190555060015460078190555060025460088190555030600460006101000a81548173ffffffffffffffffffffffffffffffffffffffff021916908373ffffffffffffffffffffffffffffffffffffffff1602179055506000600560146101000a81548160ff0219169083151502179055506000600560156101000a81548160ff021916908315150217905550600090505b600154811015620002e05760066001820190806001815401808255809150509060018203906000526020600020016000909192909190915055506040805190810160405280600073ffffffffffffffffffffffffffffffffffffffff1681526020018281525060008060018401815260200190815260200160002060008201518160000160006101000a81548173ffffffffffffffffffffffffffffffffffffffff021916908373ffffffffffffffffffffffffffffffffffffffff16021790555060208201518160010155905050808060010191505062000203565b5050505050505050620003e4565b60008183604051602001808273ffffffffffffffffffffffffffffffffffffffff1673ffffffffffffffffffffffffffffffffffffffff166c010000000000000000000000000281526014019150506040516020818303038152906040526040518082805190602001908083835b6020831015156200038357805182526020820191506020810190506020830392506200035c565b6001836020036101000a038019825116818451168082178552505050505050905001915050604051809103902060019004811515620003be57fe5b06905092915050565b60008183019050828110151515620003db57fe5b80905092915050565b6118a780620003f46000396000f30060806040526004361061015f576000357c0100000000000000000000000000000000000000000000000000000000900463ffffffff16806312fa6feb146101615780632332a5ab146101905780632f3578e9146101bb5780633a2f9eb7146101fc5780633f54b033146102275780634119ed1d146102525780635c975abb1461027d57806365e17c9d146102ac578063686dc57c14610303578063688018ba1461031a578063705db213146103455780637a998900146103705780637d707d761461039b5780638138aa60146103c657806383e60b34146103f15780638659a7091461040f5780638a8bc82d1461043a5780638da5cb5b146104ae5780639fa3498514610505578063a001ecdd14610550578063cd1d97d91461057b578063d01dbc62146105a6578063d4dca69b146105bd578063da31f3d214610614578063e24308211461063f578063e3ac5d261461066a578063ede6611714610695575b005b34801561016d57600080fd5b506101766106c0565b604051808215151515815260200191505060405180910390f35b34801561019c57600080fd5b506101a56106d3565b6040518082815260200191505060405180910390f35b3480156101c757600080fd5b506101e6600480360381019080803590602001909291905050506106d9565b6040518082815260200191505060405180910390f35b34801561020857600080fd5b506102116106fc565b6040518082815260200191505060405180910390f35b34801561023357600080fd5b5061023c610702565b6040518082815260200191505060405180910390f35b34801561025e57600080fd5b50610267610708565b6040518082815260200191505060405180910390f35b34801561028957600080fd5b5061029261070e565b604051808215151515815260200191505060405180910390f35b3480156102b857600080fd5b506102c1610721565b604051808273ffffffffffffffffffffffffffffffffffffffff1673ffffffffffffffffffffffffffffffffffffffff16815260200191505060405180910390f35b34801561030f57600080fd5b50610318610747565b005b34801561032657600080fd5b5061032f610845565b6040518082815260200191505060405180910390f35b34801561035157600080fd5b5061035a61084b565b6040518082815260200191505060405180910390f35b34801561037c57600080fd5b50610385610851565b6040518082815260200191505060405180910390f35b3480156103a757600080fd5b506103b0610857565b6040518082815260200191505060405180910390f35b3480156103d257600080fd5b506103db61085d565b6040518082815260200191505060405180910390f35b6103f9610863565b6040518082815260200191505060405180910390f35b34801561041b57600080fd5b50610424610b41565b6040518082815260200191505060405180910390f35b34801561044657600080fd5b5061046560048036038101908080359060200190929190505050610b47565b604051808373ffffffffffffffffffffffffffffffffffffffff1673ffffffffffffffffffffffffffffffffffffffff1681526020018281526020019250505060405180910390f35b3480156104ba57600080fd5b506104c3610b8b565b604051808273ffffffffffffffffffffffffffffffffffffffff1673ffffffffffffffffffffffffffffffffffffffff16815260200191505060405180910390f35b34801561051157600080fd5b5061053a6004803603810190808035906020019092919080359060200190929190505050610bb1565b6040518082815260200191505060405180910390f35b34801561055c57600080fd5b50610565611131565b6040518082815260200191505060405180910390f35b34801561058757600080fd5b50610590611137565b6040518082815260200191505060405180910390f35b3480156105b257600080fd5b506105bb61113d565b005b3480156105c957600080fd5b506105d261123b565b604051808273ffffffffffffffffffffffffffffffffffffffff1673ffffffffffffffffffffffffffffffffffffffff16815260200191505060405180910390f35b34801561062057600080fd5b50610629611261565b6040518082815260200191505060405180910390f35b34801561064b57600080fd5b50610654611267565b6040518082815260200191505060405180910390f35b34801561067657600080fd5b5061067f61126d565b6040518082815260200191505060405180910390f35b3480156106a157600080fd5b506106aa611273565b6040518082815260200191505060405180910390f35b600560149054906101000a900460ff1681565b600b5481565b6006818154811015156106e857fe5b906000526020600020016000915090505481565b60035481565b60125481565b600d5481565b600560159054906101000a900460ff1681565b600c60009054906101000a900473ffffffffffffffffffffffffffffffffffffffff1681565b600560009054906101000a900473ffffffffffffffffffffffffffffffffffffffff1673ffffffffffffffffffffffffffffffffffffffff163373ffffffffffffffffffffffffffffffffffffffff161415156107a357600080fd5b6001600560156101000a81548160ff0219169083151502179055507fc2c7770fc29311f2d22734952a4607d406306727f78c879a0eec0d8599977a8c600460009054906101000a900473ffffffffffffffffffffffffffffffffffffffff16604051808273ffffffffffffffffffffffffffffffffffffffff1673ffffffffffffffffffffffffffffffffffffffff16815260200191505060405180910390a1565b600a5481565b60105481565b60145481565b60075481565b60025481565b6000801515600560149054906101000a900460ff16151514151561088657600080fd5b60001515600560159054906101000a900460ff1615151415156108a857600080fd5b600d54341115156108b857600080fd5b6003546009541415610909576108f2600460009054906101000a900473ffffffffffffffffffffffffffffffffffffffff16600154611279565b601081905550600160105403601181905550610966565b61093d600460009054906101000a900473ffffffffffffffffffffffffffffffffffffffff1660095460016007540361134f565b601181905550600660115481548110151561095457fe5b90600052602060002001546010819055505b600d54600f600082825401925050819055503373ffffffffffffffffffffffffffffffffffffffff166108fc61099e34600d5461142e565b9081150290604051600060405180830381858888f193505050501580156109c9573d6000803e3d6000fd5b506109d5601154611447565b60105460096000828254039250508190555060408051908101604052803373ffffffffffffffffffffffffffffffffffffffff1681526020016103e7815250600080601054815260200190815260200160002060008201518160000160006101000a81548173ffffffffffffffffffffffffffffffffffffffff021916908373ffffffffffffffffffffffffffffffffffffffff16021790555060208201518160010155905050600a5460105410158015610a945750600b5460105411155b15610aab5760016008600082825403925050819055505b7f6610fe8f17779e7dc4298ae442a1445ca0db629e0a571324d0c551d6cd5d64c060105433604051808381526020018273ffffffffffffffffffffffffffffffffffffffff1673ffffffffffffffffffffffffffffffffffffffff1681526020019250505060405180910390a160006007541480610b2b57506000600854145b15610b3957610b3861157a565b5b601054905090565b60085481565b60006020528060005260406000206000915090508060000160009054906101000a900473ffffffffffffffffffffffffffffffffffffffff16908060010154905082565b600560009054906101000a900473ffffffffffffffffffffffffffffffffffffffff1681565b6000801515600560149054906101000a900460ff161515141515610bd457600080fd5b60001515600560159054906101000a900460ff161515141515610bf657600080fd5b82600081111515610c0657600080fd5b6003548111151515610c1757600080fd5b3373ffffffffffffffffffffffffffffffffffffffff1660008083815260200190815260200160002060000160009054906101000a900473ffffffffffffffffffffffffffffffffffffffff1673ffffffffffffffffffffffffffffffffffffffff16141515610c8657600080fd5b82600081111515610c9657600080fd5b6003548111151515610ca757600080fd5b3373ffffffffffffffffffffffffffffffffffffffff1660008083815260200190815260200160002060000160009054906101000a900473ffffffffffffffffffffffffffffffffffffffff1673ffffffffffffffffffffffffffffffffffffffff16141515610d1657600080fd5b83850160038190555060016002600354811515610d2f57fe5b061415610d485760016003600082825403925050819055505b6002600354811515610d5657fe5b046014819055506000806000601454815260200190815260200160002060000160009054906101000a900473ffffffffffffffffffffffffffffffffffffffff1673ffffffffffffffffffffffffffffffffffffffff1614156110b257610dd3600080601454815260200190815260200160002060010154611447565b60408051908101604052803373ffffffffffffffffffffffffffffffffffffffff1681526020016103e7815250600080601454815260200190815260200160002060008201518160000160006101000a81548173ffffffffffffffffffffffffffffffffffffffff021916908373ffffffffffffffffffffffffffffffffffffffff16021790555060208201518160010155905050846006600754815481101515610e7a57fe5b90600052602060002001819055506040805190810160405280600073ffffffffffffffffffffffffffffffffffffffff16815260200160075481525060008087815260200190815260200160002060008201518160000160006101000a81548173ffffffffffffffffffffffffffffffffffffffff021916908373ffffffffffffffffffffffffffffffffffffffff16021790555060208201518160010155905050836006600160075401815481101515610f3157fe5b90600052602060002001819055506040805190810160405280600073ffffffffffffffffffffffffffffffffffffffff16815260200160016007540181525060008086815260200190815260200160002060008201518160000160006101000a81548173ffffffffffffffffffffffffffffffffffffffff021916908373ffffffffffffffffffffffffffffffffffffffff160217905550602082015181600101559050506002600760008282540192505081905550600a5460145410158015610fff5750600b5460145411155b156110165760016008600082825403925050819055505b7f9f0aa1daf31ade645e7a35f13e6261fec7ca2b250c85d5532ab30800c1e63ca060145433604051808381526020018273ffffffffffffffffffffffffffffffffffffffff1673ffffffffffffffffffffffffffffffffffffffff1681526020019250505060405180910390a16000600754148061109657506000600854145b156110ad576110a361157a565b6014549250611129565b611128565b7f109fe4a3f55ce7da58aa97533f670314e7be5fb5fced775064827131ce3f773e60145433604051808381526020018273ffffffffffffffffffffffffffffffffffffffff1673ffffffffffffffffffffffffffffffffffffffff1681526020019250505060405180910390a160009250611129565b5b505092915050565b600e5481565b600f5481565b600560009054906101000a900473ffffffffffffffffffffffffffffffffffffffff1673ffffffffffffffffffffffffffffffffffffffff163373ffffffffffffffffffffffffffffffffffffffff1614151561119957600080fd5b6000600560156101000a81548160ff0219169083151502179055507f1bf866ea8f1bf31b853f8d70e597202d68faf720e72e9b96d58dffc5a9e68628600460009054906101000a900473ffffffffffffffffffffffffffffffffffffffff16604051808273ffffffffffffffffffffffffffffffffffffffff1673ffffffffffffffffffffffffffffffffffffffff16815260200191505060405180910390a1565b600460009054906101000a900473ffffffffffffffffffffffffffffffffffffffff1681565b60015481565b60095481565b60135481565b60115481565b60008183604051602001808273ffffffffffffffffffffffffffffffffffffffff1673ffffffffffffffffffffffffffffffffffffffff166c010000000000000000000000000281526014019150506040516020818303038152906040526040518082805190602001908083835b60208310151561130c57805182526020820191506020810190506020830392506112e7565b6001836020036101000a03801982511681845116808217855250505050505090500191505060405180910390206001900481151561134657fe5b06905092915050565b6000818484604051602001808373ffffffffffffffffffffffffffffffffffffffff1673ffffffffffffffffffffffffffffffffffffffff166c01000000000000000000000000028152601401828152602001925050506040516020818303038152906040526040518082805190602001908083835b6020831015156113ea57805182526020820191506020810190506020830392506113c5565b6001836020036101000a03801982511681845116808217855250505050505090500191505060405180910390206001900481151561142457fe5b0690509392505050565b600082821115151561143c57fe5b818303905092915050565b600754811115151561145857600080fd5b600660016007540381548110151561146c57fe5b906000526020600020015460068281548110151561148657fe5b90600052602060002001819055506040805190810160405280600073ffffffffffffffffffffffffffffffffffffffff1681526020018281525060008060066001600754038154811015156114d757fe5b9060005260206000200154815260200190815260200160002060008201518160000160006101000a81548173ffffffffffffffffffffffffffffffffffffffff021916908373ffffffffffffffffffffffffffffffffffffffff16021790555060208201518160010155905050600660016007540381548110151561155857fe5b9060005260206000200160009055600160076000828254039250508190555050565b6000801515600560149054906101000a900460ff16151514151561159d57600080fd5b60001515600560159054906101000a900460ff1615151415156115bf57600080fd5b6001600560146101000a81548160ff0219169083151502179055506001600560156101000a81548160ff021916908315150217905550600a54601260008282540192505081905550600460009054906101000a900473ffffffffffffffffffffffffffffffffffffffff1673ffffffffffffffffffffffffffffffffffffffff1631601381905550600c60009054906101000a900473ffffffffffffffffffffffffffffffffffffffff1673ffffffffffffffffffffffffffffffffffffffff166108fc6064600e546013540281151561169557fe5b049081150290604051600060405180830381858888f193505050501580156116c1573d6000803e3d6000fd5b50600080601254815260200190815260200160002090508060000160009054906101000a900473ffffffffffffffffffffffffffffffffffffffff1673ffffffffffffffffffffffffffffffffffffffff166108fc6064600e546064036013540281151561172b57fe5b049081150290604051600060405180830381858888f19350505050158015611757573d6000803e3d6000fd5b507fa0b727484eee11de4aa96703ec203a255bf98ea8b4217196e08d219daccb6adc601254600460009054906101000a900473ffffffffffffffffffffffffffffffffffffffff16600080601254815260200190815260200160002060000160009054906101000a900473ffffffffffffffffffffffffffffffffffffffff16601354604051808581526020018473ffffffffffffffffffffffffffffffffffffffff1673ffffffffffffffffffffffffffffffffffffffff1681526020018373ffffffffffffffffffffffffffffffffffffffff1673ffffffffffffffffffffffffffffffffffffffff16815260200182815260200194505050505060405180910390a150565b6000818301905082811015151561187257fe5b809050929150505600a165627a7a72305820a2cd8ee71defd7e81c8d0ab5c5cb0e9ba435587429cb769c7e96f01b35a5256e0029",
  "source": "pragma solidity ^0.4.23;\n\nimport '../node_modules/openzeppelin-solidity/contracts/math/SafeMath.sol';\n\n\n\ncontract GenericBet {\n    using SafeMath for uint;\n    struct betNumber {\n        address betNumberOwner;\n        uint    betNumberIndexFreeNumbers;\n    }\n    mapping  (uint => betNumber) public betNumbers;\n    uint  public  numberOfNumbers;\n    uint  public numberOfPossibleWinners;\n    uint  public  sumNumbers; // sum of all the numbers \n    address public thisAddress;\n    \n    address public owner;\n    bool public ended;\n    bool public  paused;\n    \n   // address[] public   numberOwners; \n    uint[] public  freeNumbers;\n    uint public freeNumbersLength;\n    uint public prizeNumbers;\n    uint public numbersSum;\n    uint public prizeNumberLow;\n    uint public prizeNumberHigh;\n    address public feeAccount;\n    uint public newNumberPrice;    \n    uint public feePercentage;\n    uint public betPrize;\n    uint public  boughtNumber;\n    uint public indexBoughtNumber;\n    \n    uint public winnerNumber;\n    uint public prize;\n    modifier ownerOnly {\n        require(msg.sender == owner);\n        _;\n    }\n   \n    uint public resultNumber;\n\n\n    event numberIsBought(uint, address);\n    event numberIsCombined(uint, address);\n    event numberIsNotCombined(uint, address);\n    event betIsFinished(uint, address, address, uint);\n    event pausedSet(address);\n    event restarted(address);\n\n\n     modifier notEnded {\n        require(ended == false);\n        _;\n    }\n\n\n     modifier notPaused {\n        require(paused == false);\n        _;\n    }\n\n\n    modifier numberOwner (uint number) {\n        require(number > 0);\n        require(number <= sumNumbers);\n        require(betNumbers[number].betNumberOwner == msg.sender);\n        _;\n    }\n     modifier enoughFee () {\n        require(msg.value > newNumberPrice);\n        _;\n    }\n     \n\n\n    // Constructor,set all the necesary variables\n    constructor(address _feeAccount,  uint _feePercentage, \n        uint _newNumberPrice, uint _numberOfNumbers, uint _numberOfPossibleWinners, uint  _sumNumbers, address _owner) public {\n    \n        owner = _owner;\n        feeAccount = _feeAccount;\n      \n        \n       \n        // The range ofpossible winner numbers smaller than the full numbers, make economical convenient combine numbers outside\n        // the winner range to have a number inside the winner range. That make possible more sophisticated strategy and bets and timed trasactions\n       \n        feePercentage = _feePercentage;\n        newNumberPrice = _newNumberPrice;\n        numberOfNumbers = _numberOfNumbers;\n        numberOfPossibleWinners = _numberOfPossibleWinners;\n        sumNumbers = _sumNumbers;\n        numbersSum = sumNumbers;\n        \n        prizeNumberLow =  randomAddress(address(this), numberOfNumbers - numberOfPossibleWinners);\n        prizeNumberHigh = SafeMath.add(prizeNumberLow , numberOfPossibleWinners) - 1;\n        freeNumbersLength = numberOfNumbers;\n        prizeNumbers = numberOfPossibleWinners;\n        thisAddress = this;\n        ended = false;\n        paused = false;\n       \n        // the only loop in the contract\n        for(uint i=0;i<numberOfNumbers;i++)\n        {\n            freeNumbers.push(i+1);\n            // numberOwners.push(0x0);\n            betNumbers[i+1] = betNumber(0x0,i);\n        }\n       \n\n\n    }\n    // the bought numbers are assigned randomly\n    function buyNumber() public payable  notEnded notPaused enoughFee returns (uint) {\n      \n    \n      \n        //sum all the bought values to have a seed\n        // if numbersSum = original sum of all the numbers  is the first time\n        if(numbersSum == sumNumbers) {\n              // the random for the first time use the address of the contract. Due to the fact that every bet is a new contract, make \n              // this choice some randomly\n              boughtNumber = randomAddress(thisAddress, numberOfNumbers);\n              indexBoughtNumber = boughtNumber -1;\n        } else{\n              // the number assigne after the first one, are using the sum of the remaining number and contract address as sed of the random)\n         indexBoughtNumber = randomUint(thisAddress, numbersSum, freeNumbersLength - 1);\n        boughtNumber = freeNumbers[indexBoughtNumber];\n         }\n          \n        betPrize += newNumberPrice;\n        // given back the money if the sender send more money than the cost of a new number\n        msg.sender.transfer(SafeMath.sub(msg.value, newNumberPrice));\n       \n        \n        // remove the number just bought for the remaining free numbers\n        remove(indexBoughtNumber);\n        // subtract from the sum of the remaining numbers\n        numbersSum -= boughtNumber;\n        // assign the number to the send address\n        // numberOwners[boughtNumber - 1] = msg.sender;\n        \n        betNumbers[boughtNumber] = betNumber(msg.sender,999); /////////////////////////////////////////////////\n        \n        // check if the bought number is in the range of winner numbers\n        if(boughtNumber >= prizeNumberLow && boughtNumber <= prizeNumberHigh){\n            prizeNumbers -= 1;\n        }\n        emit numberIsBought(boughtNumber, msg.sender);\n        // end bet when the number in the magic interval are all bought\n        if(freeNumbersLength == 0 || prizeNumbers ==0) {\n            endBet();\n        }\n            \n        return(boughtNumber);\n  \n    }\n\n\n    // a player can combine two numbers in another number (average) to try to have a number in the winner range\n    // if the resulting number is free is assigned to the sender. But the two number used, are freed\n    function combineNumbers(uint number1, uint number2) public notEnded notPaused \n                    numberOwner(number1) numberOwner(number2) returns(uint newNumber){\n        sumNumbers = number1 + number2;\n        if(sumNumbers%2 == 1){\n            sumNumbers -= 1;\n        }\n        resultNumber = sumNumbers / 2;\n\n\n        if(betNumbers[resultNumber].betNumberOwner == 0x0){\n            //numberOwners[number1] = 0x0;\n            //numberOwners[number2] = 0x0;\n            \n            // numberOwners[resultNumber - 1] = msg.sender;\n            \n            remove(betNumbers[resultNumber].betNumberIndexFreeNumbers);\n            betNumbers[resultNumber] = betNumber(msg.sender,999);\n            freeNumbers[freeNumbersLength] = number1;\n            betNumbers[number1] = betNumber(0x0, freeNumbersLength);\n            freeNumbers[freeNumbersLength + 1] = number2;\n            betNumbers[number2] = betNumber(0x0, freeNumbersLength + 1);\n            freeNumbersLength += 2;\n             if(resultNumber >= prizeNumberLow && resultNumber <= prizeNumberHigh){\n            prizeNumbers -= 1;\n        }\n            emit numberIsCombined(resultNumber, msg.sender);\n        \n        // end bet when the number in the magic interval are all bought\n        if(freeNumbersLength == 0 || prizeNumbers ==0) {\n            endBet();\n            return resultNumber;\n        }\n        } else{\n             emit numberIsNotCombined(resultNumber, msg.sender);\n            return 0;\n        } \n    }\n\n\n\n        function endBet() private notEnded notPaused {\n            // set the flag to ended and pause (for security)\n            ended = true;\n            paused = true;\n           \n            // find the winner number ramdomized with contract address and address of the owner of the last bought number\n            // find the number in the range of possobile winners\n            // winnerNumber = randomUintAA(thisAddress, numberOwners[boughtNumber - 1], numberOfPossibleWinners);\n            winnerNumber += uint(prizeNumberLow);\n            \n            // tranfer money to the winner except for the fee\n            prize = thisAddress.balance;\n           \n            feeAccount.transfer(prize * feePercentage /100);\n           // numberOwners[winnerNumber - 1].transfer(prize * (100 - feePercentage)  /100);\n            betNumber storage  betNumberWinner = betNumbers[winnerNumber];\n            betNumberWinner.betNumberOwner.transfer(prize * (100 - feePercentage)  /100);\n            \n            emit betIsFinished(winnerNumber, thisAddress, betNumbers[winnerNumber].betNumberOwner, prize);\n             // TODO empty contract balance\n            return;\n\n\n        }\n        // remove a number for the array of free numbers\n    function remove(uint index) private   {\n        require(index <= freeNumbersLength);\n        freeNumbers[index] = freeNumbers[freeNumbersLength - 1];\n        betNumbers[freeNumbers[freeNumbersLength - 1]] = betNumber(0x0,index);  ///////////\n        delete freeNumbers[freeNumbersLength - 1];\n        freeNumbersLength -= 1;\n        return;\n    }\n    \n    function pauseOn() public  ownerOnly {\n        paused = true;\n        emit pausedSet(thisAddress);\n    }\n      function pauseOff() public  ownerOnly {\n        paused = false;\n        emit restarted(thisAddress);\n    }\n\n\n   \n    // random function with an address and one number)\n    function randomUint(address seed1, uint seed2, uint modulo) private pure returns (uint) {\n      return uint(uint256(keccak256(abi.encodePacked(seed1, seed2)))%modulo);   }\n\n\n    // random function with two address\n    function randomUintAA(address  seed, address seed1, uint modulo) private pure returns (uint) {\n      return uint(uint256(keccak256(abi.encodePacked(seed,seed1)))%modulo);   }\n\n\n      //function duplicated not to make it public\n    function randomAddress(address seed, uint modulo) private pure returns (uint) {\n      return uint(uint256(keccak256(abi.encodePacked(seed)))%modulo);   }\n\n\n      \n    //fallback function\n    function () payable public {}\n}   \n\n\n//contract MainBet {\ncontract MainBet  {\n    using SafeMath for uint;\n    address public feeAccount; \n    uint public feePercentage;\n    uint public newNumberPrice;\n    uint public  numberOfNumbers;\n    uint public numberOfPossibleWinners;\n    uint public sumNumbers; // sum of the numbers from 1 to 100\n    string betName;\n   \n\n\n/* addrees of the contract of the actual bet. only one bet at time is allowed */\n    address public actualBetContractAddress;\n    GenericBet actualBetContract;\n    address public owner ;\n modifier ownerOnly {\n        require(msg.sender == owner);\n        _;\n    }\n    // event bet created ok\n    event betCreated(address actualBetContractAddress);\n\n\n    // Constructor    \n    constructor(address _feeAccount,  uint _feePercentage, \n        uint _newNumberPrice, string _betName, uint _numberOfNumbers, uint _numberOfPossibleWinners, uint _sumNumbers ) public {\n        /* Set the bets variable of this generation of cruptobet */\n        require(_feePercentage > 0 && _feePercentage < 100);\n        require(_newNumberPrice > 0);\n        require(_feeAccount != 0x0);\n        require(_sumNumbers > 0);\n        require(_numberOfNumbers > _numberOfPossibleWinners);\n        require(_numberOfNumbers < 101);\n        owner = msg.sender;\n        feeAccount = _feeAccount;\n        feePercentage = _feePercentage;\n        newNumberPrice = _newNumberPrice;\n        betName = _betName;\n        numberOfNumbers = _numberOfNumbers;\n        numberOfPossibleWinners = _numberOfPossibleWinners;\n        sumNumbers = _sumNumbers; // sum of the numbers from 1 to 100. Is given as parameters not to coume too much gas\n        \n    }\n\n\n    function createBet() public ownerOnly returns(address) {\n        /*  test if address is zero for the first time */\n        if( (address(actualBetContract) != 0x0 && actualBetContract.ended() ) || address(actualBetContract) == 0x0){\n               // starting value of the range of winner numbers\n            actualBetContract = new GenericBet( feeAccount,feePercentage,newNumberPrice,numberOfNumbers,numberOfPossibleWinners, sumNumbers, owner);\n            actualBetContractAddress = address(actualBetContract);\n            emit betCreated(actualBetContractAddress);\n            return actualBetContractAddress;\n        }\n        return;\n    }\n\n\n  function randomAddress(address seed, uint modulo) private pure returns (uint) {\n      return uint(uint256(keccak256(abi.encodePacked(seed)))%modulo);   }\n\n\n    }",
  "sourcePath": "/home/rickzan/Documents/cryptobet/contracts/MainBet.sol",
  "compiler": {
    "name": "solc",
    "version": "0.4.24+commit.e67f0147.Emscripten.clang"
  },
  "schemaVersion": "2.0.0",
  "updatedAt": "2018-08-08T19:05:39.622Z"
}